{
  "_format": "hh-sol-artifact-1",
  "contractName": "CallOracle",
  "sourceName": "contracts/interactOV2.sol",
  "abi": [
    {
      "inputs": [
        {
          "internalType": "address",
          "name": "OracleV2Addr",
          "type": "address"
        }
      ],
      "stateMutability": "nonpayable",
      "type": "constructor"
    },
    {
      "inputs": [],
      "name": "getPriceData",
      "outputs": [
        {
          "internalType": "string",
          "name": "",
          "type": "string"
        }
      ],
      "stateMutability": "view",
      "type": "function"
    },
    {
      "inputs": [],
      "name": "requestUpdate",
      "outputs": [],
      "stateMutability": "nonpayable",
      "type": "function"
    }
  ],
  "bytecode": "0x608060405234801561001057600080fd5b50604051610502380380610502833981810160405281019061003291906100db565b806000806101000a81548173ffffffffffffffffffffffffffffffffffffffff021916908373ffffffffffffffffffffffffffffffffffffffff16021790555050610108565b600080fd5b600073ffffffffffffffffffffffffffffffffffffffff82169050919050565b60006100a88261007d565b9050919050565b6100b88161009d565b81146100c357600080fd5b50565b6000815190506100d5816100af565b92915050565b6000602082840312156100f1576100f0610078565b5b60006100ff848285016100c6565b91505092915050565b6103eb806101176000396000f3fe608060405234801561001057600080fd5b50600436106100365760003560e01c80639c312cfd1461003b578063a4a2816814610045575b600080fd5b610043610063565b005b61004d6100e5565b60405161005a9190610210565b60405180910390f35b60008054906101000a900473ffffffffffffffffffffffffffffffffffffffff1673ffffffffffffffffffffffffffffffffffffffff1663d73228626040518163ffffffff1660e01b8152600401600060405180830381600087803b1580156100cb57600080fd5b505af11580156100df573d6000803e3d6000fd5b50505050565b606060008054906101000a900473ffffffffffffffffffffffffffffffffffffffff1673ffffffffffffffffffffffffffffffffffffffff1663e61a5fe46040518163ffffffff1660e01b8152600401600060405180830381865afa158015610152573d6000803e3d6000fd5b505050506040513d6000823e3d601f19601f8201168201806040525081019061017b919061036c565b905090565b600081519050919050565b600082825260208201905092915050565b60005b838110156101ba57808201518184015260208101905061019f565b60008484015250505050565b6000601f19601f8301169050919050565b60006101e282610180565b6101ec818561018b565b93506101fc81856020860161019c565b610205816101c6565b840191505092915050565b6000602082019050818103600083015261022a81846101d7565b905092915050565b6000604051905090565b600080fd5b600080fd5b600080fd5b600080fd5b7f4e487b7100000000000000000000000000000000000000000000000000000000600052604160045260246000fd5b610288826101c6565b810181811067ffffffffffffffff821117156102a7576102a6610250565b5b80604052505050565b60006102ba610232565b90506102c6828261027f565b919050565b600067ffffffffffffffff8211156102e6576102e5610250565b5b6102ef826101c6565b9050602081019050919050565b600061030f61030a846102cb565b6102b0565b90508281526020810184848401111561032b5761032a61024b565b5b61033684828561019c565b509392505050565b600082601f83011261035357610352610246565b5b81516103638482602086016102fc565b91505092915050565b6000602082840312156103825761038161023c565b5b600082015167ffffffffffffffff8111156103a05761039f610241565b5b6103ac8482850161033e565b9150509291505056fea26469706673582212206ce20249649ed5a5b7fbb839c3d8475eab63d0b07cc7fd02bc23d72fd319eb0a64736f6c63430008130033",
  "linkReferences": {},
  "deployedLinkReferences": {}
}