{
  "_format": "hh-sol-artifact-1",
  "contractName": "CallOracle",
  "sourceName": "contracts/interactOV1.sol",
  "abi": [
    {
      "inputs": [
        {
          "internalType": "address",
          "name": "OracleV1Addr",
          "type": "address"
        }
      ],
      "stateMutability": "nonpayable",
      "type": "constructor"
    },
    {
      "inputs": [],
      "name": "getPriceData",
      "outputs": [
        {
          "internalType": "string",
          "name": "",
          "type": "string"
        }
      ],
      "stateMutability": "view",
      "type": "function"
    }
  ],
  "bytecode": "0x608060405234801561001057600080fd5b5060405161046b38038061046b833981810160405281019061003291906100db565b806000806101000a81548173ffffffffffffffffffffffffffffffffffffffff021916908373ffffffffffffffffffffffffffffffffffffffff16021790555050610108565b600080fd5b600073ffffffffffffffffffffffffffffffffffffffff82169050919050565b60006100a88261007d565b9050919050565b6100b88161009d565b81146100c357600080fd5b50565b6000815190506100d5816100af565b92915050565b6000602082840312156100f1576100f0610078565b5b60006100ff848285016100c6565b91505092915050565b610354806101176000396000f3fe608060405234801561001057600080fd5b506004361061002b5760003560e01c8063a4a2816814610030575b600080fd5b61003861004e565b6040516100459190610179565b60405180910390f35b606060008054906101000a900473ffffffffffffffffffffffffffffffffffffffff1673ffffffffffffffffffffffffffffffffffffffff1663e61a5fe46040518163ffffffff1660e01b8152600401600060405180830381865afa1580156100bb573d6000803e3d6000fd5b505050506040513d6000823e3d601f19601f820116820180604052508101906100e491906102d5565b905090565b600081519050919050565b600082825260208201905092915050565b60005b83811015610123578082015181840152602081019050610108565b60008484015250505050565b6000601f19601f8301169050919050565b600061014b826100e9565b61015581856100f4565b9350610165818560208601610105565b61016e8161012f565b840191505092915050565b600060208201905081810360008301526101938184610140565b905092915050565b6000604051905090565b600080fd5b600080fd5b600080fd5b600080fd5b7f4e487b7100000000000000000000000000000000000000000000000000000000600052604160045260246000fd5b6101f18261012f565b810181811067ffffffffffffffff821117156102105761020f6101b9565b5b80604052505050565b600061022361019b565b905061022f82826101e8565b919050565b600067ffffffffffffffff82111561024f5761024e6101b9565b5b6102588261012f565b9050602081019050919050565b600061027861027384610234565b610219565b905082815260208101848484011115610294576102936101b4565b5b61029f848285610105565b509392505050565b600082601f8301126102bc576102bb6101af565b5b81516102cc848260208601610265565b91505092915050565b6000602082840312156102eb576102ea6101a5565b5b600082015167ffffffffffffffff811115610309576103086101aa565b5b610315848285016102a7565b9150509291505056fea2646970667358221220d95af84b03964e010badd101ce9c14de1b55f539281241b7f60f633813d3657f64736f6c63430008130033",
  "linkReferences": {},
  "deployedLinkReferences": {}
}