{
  "_format": "hh-sol-artifact-1",
  "contractName": "OracleV2",
  "sourceName": "contracts/OracleV2.sol",
  "abi": [
    {
      "anonymous": false,
      "inputs": [],
      "name": "PriceDataRequest",
      "type": "event"
    },
    {
      "inputs": [],
      "name": "priceData",
      "outputs": [
        {
          "internalType": "string",
          "name": "",
          "type": "string"
        }
      ],
      "stateMutability": "view",
      "type": "function"
    },
    {
      "inputs": [],
      "name": "requestPriceData",
      "outputs": [],
      "stateMutability": "nonpayable",
      "type": "function"
    },
    {
      "inputs": [
        {
          "internalType": "string",
          "name": "_priceData",
          "type": "string"
        }
      ],
      "name": "updatePriceData",
      "outputs": [],
      "stateMutability": "nonpayable",
      "type": "function"
    }
  ],
  "bytecode": "0x608060405234801561001057600080fd5b506106bb806100206000396000f3fe608060405234801561001057600080fd5b50600436106100415760003560e01c80636ebab54c14610046578063d732286214610062578063e61a5fe41461006c575b600080fd5b610060600480360381019061005b91906102b3565b61008a565b005b61006a61009d565b005b6100746100cb565b604051610081919061037b565b60405180910390f35b806000908161009991906105b3565b5050565b7f8cbcd4cbde2e8330dddb4d454e84c60c56fd5e1d67c47ed7dbe3f379c9a8cf1760405160405180910390a1565b600080546100d8906103cc565b80601f0160208091040260200160405190810160405280929190818152602001828054610104906103cc565b80156101515780601f1061012657610100808354040283529160200191610151565b820191906000526020600020905b81548152906001019060200180831161013457829003601f168201915b505050505081565b6000604051905090565b600080fd5b600080fd5b600080fd5b600080fd5b6000601f19601f8301169050919050565b7f4e487b7100000000000000000000000000000000000000000000000000000000600052604160045260246000fd5b6101c082610177565b810181811067ffffffffffffffff821117156101df576101de610188565b5b80604052505050565b60006101f2610159565b90506101fe82826101b7565b919050565b600067ffffffffffffffff82111561021e5761021d610188565b5b61022782610177565b9050602081019050919050565b82818337600083830152505050565b600061025661025184610203565b6101e8565b90508281526020810184848401111561027257610271610172565b5b61027d848285610234565b509392505050565b600082601f83011261029a5761029961016d565b5b81356102aa848260208601610243565b91505092915050565b6000602082840312156102c9576102c8610163565b5b600082013567ffffffffffffffff8111156102e7576102e6610168565b5b6102f384828501610285565b91505092915050565b600081519050919050565b600082825260208201905092915050565b60005b8381101561033657808201518184015260208101905061031b565b60008484015250505050565b600061034d826102fc565b6103578185610307565b9350610367818560208601610318565b61037081610177565b840191505092915050565b600060208201905081810360008301526103958184610342565b905092915050565b7f4e487b7100000000000000000000000000000000000000000000000000000000600052602260045260246000fd5b600060028204905060018216806103e457607f821691505b6020821081036103f7576103f661039d565b5b50919050565b60008190508160005260206000209050919050565b60006020601f8301049050919050565b600082821b905092915050565b60006008830261045f7fffffffffffffffffffffffffffffffffffffffffffffffffffffffffffffffff82610422565b6104698683610422565b95508019841693508086168417925050509392505050565b6000819050919050565b6000819050919050565b60006104b06104ab6104a684610481565b61048b565b610481565b9050919050565b6000819050919050565b6104ca83610495565b6104de6104d6826104b7565b84845461042f565b825550505050565b600090565b6104f36104e6565b6104fe8184846104c1565b505050565b5b81811015610522576105176000826104eb565b600181019050610504565b5050565b601f82111561056757610538816103fd565b61054184610412565b81016020851015610550578190505b61056461055c85610412565b830182610503565b50505b505050565b600082821c905092915050565b600061058a6000198460080261056c565b1980831691505092915050565b60006105a38383610579565b9150826002028217905092915050565b6105bc826102fc565b67ffffffffffffffff8111156105d5576105d4610188565b5b6105df82546103cc565b6105ea828285610526565b600060209050601f83116001811461061d576000841561060b578287015190505b6106158582610597565b86555061067d565b601f19841661062b866103fd565b60005b828110156106535784890151825560018201915060208501945060208101905061062e565b86831015610670578489015161066c601f891682610579565b8355505b6001600288020188555050505b50505050505056fea2646970667358221220cafddb16bc969f412894e018eb7dfc759d83ac80c07145df9f9c274ee6ca9c4964736f6c63430008130033",
  "linkReferences": {},
  "deployedLinkReferences": {}
}